:100000000200B312009F1200C7EF60FAE4F51CF57E
:100010001D1200CD7408251DF8A6077F0A7E001268
:10002000005F1200C7EF70E9FB7A00790812007FC9
:1000300080D4BB010CE58229F582E5833AF583E0A3
:10004000225006E92582F8E622BBFE06E92582F861
:10005000E222E58229F582E5833AF583E49322E4FE
:10006000FDFCC3ED9FEC9E5015E4FBFA0BBB0001B9
:100070000AEB64714A70F50DBD00010C80E4228B1F
:100080001E8A1F8920E4FEAB1EAA1FA9208E82753E
:100090008300120032FF60061200BF0E80E922C208
:1000A0009FD29E53890F438920758DFDD28ED299A0
:1000B000D29C22787FE4F6D8FD75812002000330BF
:1000C00099FDC2998F9922A298E433FF22C298AF7A
:0200D000992273
:00000001FF
