:10000000020083BB010CE58229F582E5833AF58382
:10001000E0225006E92582F8E622BBFE06E92582A9
:10002000F8E222E58229F582E5833AF583E493221A
:10003000E4FDFCC3ED9FEC9E5015E4FBFA0BBB0006
:10004000010AEB64714A70F50DBD00010C80E422D9
:1000500012006F20B2FD12008FEF60F71200958F33
:10006000907F107E271200301200958F9080E4C29E
:100070009FD29E53890F438920758DFDD28ED299D0
:10008000D29C22787FE4F6D8FD758107020050A249
:0A00900098E433FF22C298AF9922D2
:00000001FF
