:10010E0074F4692079657520646174206E756F636F
:09011E002063756120746F690013
:1000F400C2A08FB0C2A1D2A1EFD3940250047F0258
:0A01040080027F017E001200B52288
:0F013E00D2A08FB0C2A1D2A17F017E000200B576
:020127008B113A
:10012900BF01047F8080027FC0EF2D14FF1200F40D
:05013900AF1102013EC0
:060092008B0D8A0E890FA0
:10009800E4F510AB0DAA0EA90F8510827583001226
:0C00A8000039FF600712013E051080E7E0
:0100B4002229
:0600D5008B0A8A0B890C66
:1000DB00BF01047F8080027FC0EF2D14FF1200F45C
:0900EB00AB0AAA0BA90C02009259
:100066007F301200F47F057E001200B57F3012004B
:10007600F47F017E001200B57F301200F47F381243
:0C00860000F47F011200F47F0C0200F473
:100003001200667BFF7A01790E7D017F021200D513
:10001300E4F508F5097FF47E011200B57F1812009C
:10002300F40509E50970020508C39408E50864802E
:06003300948040E180FE14
:1000B500E4FDFCC3ED9FEC9E5015E4FBFA0BBB0081
:0F00C500010AEB647B4A70F50DBD00010C80E46D
:0100D4002209
:0300000002014DAD
:0C014D00787FE4F6D8FD758111020003F4
:10003900BB010CE58229F582E5833AF583E022507C
:1000490006E92582F8E622BBFE06E92582F8E222C6
:0D005900E58229F582E5833AF583E49322E0
:00000001FF
