:020000040800F2
:1000000030070020650100086D0100086F0100083D
:10001000710100087301000875010008000000006C
:100020000000000000000000000000007701000850
:1000300079010008000000007B010008C51F0008CE
:100040007F0100087F0100087F0100087F01000890
:100050007F0100087F0100087F0100087F01000880
:100060007F0100087F0100087F0100087F01000870
:100070007F0100087F0100087F0100087F01000860
:100080007F0100087F0100087F0100087F01000850
:100090005D0400087F0100087F0100087F0100085F
:1000A0007F0100087F0100087F0100087F01000830
:1000B0007F0100087F010008792000087F01000807
:1000C0007F0100087F0100087F0100087F01000810
:1000D0007F0100087F0100087F0100087F01000800
:1000E0007F0100087F0100087F0100080000000078
:1000F0000000000000000000000000000000000000
:1001000000000000000000007F0100087F010008DF
:100110007F0100087F0100087F0100087F010008BF
:100120007F0100087F010008790600087F010008B0
:100130007F01000800000000000000007F010008AF
:100140007F0100087F0100087F0100087F0100088F
:10015000DFF80CD000F070F90048004715250008C2
:10016000300700200648804706480047FEE7FEE7C4
:10017000FEE7FEE7FEE7FEE7FEE7FEE7FEE7FEE757
:1001800025200008510100082DE9F05F05460020F8
:1001900092469B4688460646814640241BE02846F8
:1001A00041464746224600F020F853465A46C01AB8
:1001B000914110D311461846224600F0D0F82D1A6E
:1001C00067EB01084F4622460120002100F0C7F8E6
:1001D00017EB00094E41201EA4F10104DFDC484664
:1001E00031462A464346BDE8F09F202A04DB203AE8
:1001F00021FA02F00021704721FA02F3D040C2F147
:1002000020029140084319467047D2B201E000F83D
:10021000012B491EFBD270470022F6E710B51346AA
:100220000A4604461946FFF7F0FF204610BD2DE9A7
:10023000FE4F81EA030404F0004421F000410094E1
:100240004FF0000B23F0004350EA01045ED052EA65
:1002500003045BD0C3F30A54C1F30A552C44A4F23F
:10026000F3340194A0FB0254C1F3130141F4801153
:10027000C3F3130343F4801301FB024400FB034E5A
:10028000840A970A44EA815447EA8357A4FB076823
:1002900002958D0A05FB07854FEA932C04FB0C544D
:1002A0002705029D4FEA065847EA1637B5EB0805C1
:1002B0006EEB070C870E920E47EA811742EA831213
:1002C000A7FB0201B6EB0B0164EB00042B0D43EA24
:1002D0000C335E1844EB1C50DA465146E7FB020132
:1002E000C5F313044FEA0B3343EA14534FEA0432C5
:1002F000019C43EA0603A4F10C040294009CCDE99E
:1003000000B400F04AF803B0BDE8F08F00200146C9
:10031000F9E70EB540F2334102910021CDE9001119
:100320000A460B4600F039F803B000BDC1F30A528B
:1003300010B5C1F3130140F2FF3341F480119A422A
:1003400001DA002010BD40F233439A42A2F2334258
:1003500003DC5242FFF749FF10BD904010BD202A38
:1003600004DB203A00FA02F1002070479140C2F10C
:10037000200320FA03F319439040704710B5141E70
:1003800073F1000408DA401C41F1000192185B414E
:100390001A4301D120F0010010BD2DE9F04D924625
:1003A0009B4611B1B1FA81F202E0B0FA80F220323C
:1003B0009046FFF7D4FF04460F4640EA0A0041EAA0
:1003C0000B0153465A46084313D0114653EA010025
:1003D00019D0C8F140025046FFF707FF05460E4608
:1003E000504659464246FFF7BAFF084305D0012060
:1003F00004E020463946BDE8F08D0020054346EA7A
:10040000E0762C4337430A986305E40AA0EB080022
:100410000022FD0A44EA47540A3002D50020014672
:10042000E9E7010510196941DDE90845001969414D
:10043000BDE8F04DA2E70000064C074D06E0E0687D
:1004400040F0010394E8070098471034AC42F6D31B
:10045000FFF782FEF4250008142600082DE9F0417C
:100460007E4B7F4A00217F4800F00BFA7C4A7E4891
:1004700040F236471568011D784BA5F23646A0F1CB
:100480001804BD423AD012DCB5F5897F79D006DC7C
:10049000182D78D0A5F58075113D17D1A8E0B5F5D8
:1004A0002C7F11D0A5F54075163DF6D13CE0BB2E52
:1004B0000DD004DC092E7DD00A2EEED10DE0D82E11
:1004C0002FD0DA2E02D142E01888A082A7E010696E
:1004D000042812D1587840080EE0106908280CD181
:1004E0001878FF2809D19878FFF713FF5F4A604B0F
:1004F000FFF79DFEFFF71AFFA07190E09C7804F0D3
:10050000030202705A78C4F3C104C2F3C1054570F6
:100510008570C470187802F0030200F003030B70BA
:1005200027E09879A0747AE09879A07158888008BB
:10053000E08258792D2803D02F2801D02E286ED1A3
:100540002D2222702F216170A270E17064E09A78F0
:1005500002F0030404705C79C2F3C102C4F34104E5
:1005600044708470C270187800F003020A701A791F
:1005700092094A708A70C0F3C100C8704FE000E071
:1005800001E09878B8E79878002101F0A8FE207281
:100590005879062101F0A3FE60725879052101F017
:1005A0009EFEA072617A0140E1729878002101F00C
:1005B00096FE00E01CE02073002060731878042190
:1005C00001F08DFEA0731878072101F088FEE0731A
:1005D0001879032101F083FE20741879012101F0BC
:1005E0007EFE20745879072101F079FE607416E0D0
:1005F0005878402807D0472805D0462803D04528FA
:1006000001D048280BD1402121704721617046213B
:10061000A1704521E170482121716171E071154897
:1006200001784278C378114082781A4011400279EB
:1006300011404279114082791140C2791140027A09
:100640001140427A1140827A1140C27A1140C94366
:100650000173BDE8F041034800F087B9190000209C
:1006600010030020540000203A0000209A99999924
:100670009999F93F0C000020014800F079BB000077
:10068000CC020020704790F82020012A07D0022ACF
:1006900005D0416A41F48021416201207047006821
:1006A00042690A43426100207047F0B590F820503B
:1006B0000468A468012D05D0022D03D0416A41F4DD
:1006C000802153E014F0406F01D1E5004BD5C4F315
:1006D0000164022C03D9416A41F4000146E001257E
:1006E000A5401D608D684FF4C0739DB1CE68354341
:1006F0004E6845EAC605066803EB0417F5514FF44A
:10070000C275076805EB04150E697E51097D012944
:1007100005D009E00E88CD6845EA4655EBE701684B
:100720004E5946F480764E511179D2F805504FF467
:10073000C67641EA0525016806EB04168D5111784D
:10074000D2F801204FF4C47541EA0221026805EB9A
:1007500004155151006803EB0411425842F00102A4
:1007600042500020F0BD416A41F400114162012075
:10077000F0BD000010B590F82020012A07D0022A11
:1007800005D0416A41F480214162012010BD3B48FF
:10079000D0F8002242F00102C0F80022D0F8002276
:1007A00022F47C52C0F80022D0F800224B6A42EAC0
:1007B0000322C0F800220A7D02F01F0301229A40A2
:1007C000D0F81C329343C0F81C32CB69B3B9D0F8CF
:1007D0000C329343C0F80C328C894B6864F31F438E
:1007E0004C6900EBC404C4F840320C890B6864F314
:1007F0001F434C6900EBC404C4F84432CB69012B9D
:1008000016D1D0F80C321343C0F80C320C884B6868
:1008100064F31F434C6900EBC404C4F840320C89F4
:10082000CB6864F31F434C6900EBC404C4F8443242
:100830008B69002BD0F804320ED01343C0F8043279
:100840000B69002BD0F8143208D01343C0F81432CF
:10085000096A012904D008E09343EFE79343F5E7E1
:10086000D0F81C121143C0F81C12D0F8001221F06D
:100870000101C0F80012002010BD0000006400401B
:10088000704730B590F82040012C05D0022C03D0E1
:10089000416A41F480215DE00468002955D0246953
:1008A000A40754D04FF4D874056804EB01142D59F3
:1008B00015F00405956005682D594ED0ED0855607A
:1008C00005682C5904F00204D4604FF4DA7405680A
:1008D00004EB01142D5905F00F05156105682D591C
:1008E000C5F30725956105682C59240C54614FF414
:1008F000DC72046802EB0112A4581C700468A4584E
:10090000240A5C700468A458240C9C700468A258E3
:10091000120EDA704FF4DE72046802EB0112A45872
:100920001C710468A458240A5C710468A458240C3F
:100930009C710468A258120EDA71006881B10169D5
:1009400041F020010161002030BDE468A8E7416A60
:1009500041F400114162012030BD6D0D1560AFE71B
:10096000C16841F02001C160EDE72DE9F05F054667
:10097000006800244669D0F804908768D0F80CB06D
:10098000D0F810A0D0F81880F10748D0F90714D09B
:1009900001218160B80703D5284600F0E2F90CE098
:1009A000780702D54FF4006407E0380702D54FF40A
:1009B000805402E0284600F0D3F9F80516D52968DE
:1009C0004FF480708860B80503D5284600F0CBF955
:1009D0000CE0780502D544F4005407E0380502D550
:1009E00044F4804402E0284600F0BCF9F80316D530
:1009F00029684FF480308860B80303D5284600F09A
:100A0000B4F90CE0780302D544F4004407E038035D
:100A100002D544F4803402E0284600F0A5F93007FE
:100A200007D55FEACB6004D52968102044F4007430
:100A3000C86070074FF0080707D55FEA0B7004D550
:100A40002868C760284600F059F9B00706D528681D
:100A5000C068800702D0284600F051F9700607D51B
:100A60005FEACA6004D52968102044F480640861F4
:100A7000B00607D55FEA0A7004D5286807612846E2
:100A800000F03EF9F00606D528680069800702D01C
:100A9000284600F036F9B00308D55FEAC96005D5ED
:100AA000296810204860284600F02CF9F00307D58B
:100AB0005FEA097004D528684760284600F056F9B7
:100AC000300446D55FEA497040D5F00504D55FEAA9
:100AD000C87001D044F00104B00504D55FEA887005
:100AE00001D544F00204700504D55FEA487001D5D1
:100AF00044F00404300529D518F0700F26D008F012
:100B00007000402815D006DC102809D020280AD013
:100B1000302816D10AE050280ED0602811D10EE0FE
:100B200044F008040DE044F010040AE044F020040E
:100B300007E044F0400404E044F0800401E044F4A1
:100B400080742868816921F070018161296804201E
:100B50004860002C05D0686A204368622846FFF789
:100B60008FFEBDE8F09F70B5040003D094F820001C
:100B700010B104E0012070BD204600F081F820682B
:100B8000016821F00201016000F05CFB05460526CA
:100B900004E000F057FB401B0A2811D82068406889
:100BA0008007F6D42068016841F00101016000F07F
:100BB00049FB05460BE000F045FB401B0A2806D91F
:100BC000606A40F40030606284F82060D2E72068F8
:100BD0004068C007EFD0207E0128206801683DD022
:100BE00021F080010160607E01282068016838D012
:100BF00021F040010160A07E01282068016833D007
:100C000021F020010160E07E0128206801682ED0DB
:100C100041F010010160207F01282068016829D07F
:100C200021F008010160607F01282068016824D05C
:100C300021F004010160D4E902010843D4E904125F
:100C4000114308436168491E08432168C8610020B8
:100C50006062012084F82000002070BD41F0800116
:100C6000C0E741F04001C5E741F02001CAE721F0AB
:100C70001001CFE741F00801D4E741F00401D9E7C2
:100C800010B586B000210091019102910391006896
:100C9000174988422AD11748C16941F00071C161E2
:100CA000C16901F000710491816941F00401816121
:100CB0008069114C00F0040004904FF40060009033
:100CC0006946204600F0C8F9A01400900220019067
:100CD000032003906946204600F0BEF9002201215E
:100CE000142000F01BFB142000F00AFB06B010BD1E
:100CF0000064004000100240000801407047704747
:100D0000704770477047000070B5044690F82000A7
:100D1000012804D0606A40F40020606218E00220DC
:100D200084F820002068016821F00101016000F0D2
:100D300089FA05460EE000BF00F084FA401B0A283D
:100D400008D9606A40F400306062052084F8200011
:100D5000012070BD20684068C007EDD1606270BDA1
:100D60007047704770477047704770477047000082
:100D70002DE9F05FC16B0A6801680B68046C4FF0E5
:100D8000040808FA04F8844D844E854FDFF814C235
:100D9000DFF81492DFF814A2DFF814B2DFF814E2DF
:100DA00018EA020F65D05FEA437862D50A689206B6
:100DB00003D40A6822F004020A60DFF8F0814FF4DD
:100DC0008062016808F1140813011402414524D916
:100DD000A9420DD0B1420FD0B9421AD0614515D009
:100DE000494515D0514501D1120312E0594501D1B1
:100DF00004220EE0714501D140220AE06D4D143508
:100E0000A94206D06B4A2832914201D11A4600E02D
:100E100022466749091F0A6029E0A94213D0B1425E
:100E200015D0B94220D061451BD049451BD0514552
:100E300002D14FF4800217E0414502D14FF08062A9
:100E400012E0594501D104220EE0714501D1402242
:100E50000AE0584D1435A94206D0564A283291422C
:100E600001D11A4600E022464B4908394A60C16A5E
:100E700071E04FF0020808FA04F818EA020F70D087
:100E80005FEA83786DD50A68920606D40A6822F074
:100E90000A020A60012180F82110DFF810814FF466
:100EA0000072016808F1140813011402414524D9A5
:100EB000A9420DD0B1420FD0B9421AD0614515D028
:100EC000494515D0514501D1120312E0594501D1D0
:100ED00002220EE0714501D120220AE0354D143581
:100EE000A94206D0334A2832914201D11A4600E085
:100EF00022462F49091F0A6029E0A94213D0B142B6
:100F000015D0B94220D061451BD049451BD0514571
:100F100002D14FF4001217E0414502D14FF00072A8
:100F200012E0594501D102220EE0714501D1202283
:100F30000AE0204D1435A94206D01E4A28329142BB
:100F400001D11A4600E02246134908394A600021BF
:100F500080F82010816A00291CD0BDE8F05F0847A6
:100F6000FFE70825A540154214D01A0712D50A68D4
:100F700022F00E020A6090F84020C36B012101FAB2
:100F800002F25A60816380F82110002180F820105D
:100F9000016BE0E7BDE8F09F080002401C00024042
:100FA0003000024044000240580002406C00024001
:100FB000080402401C04024030B560B11A4B0268BC
:100FC00014219A4209D2194B1344B3FBF1F1890061
:100FD000016417490AE0012030BD134B5B42134402
:100FE000B3FBF1F1890001640F490839C1630221A3
:100FF00080F82110136843F6F0718B43F0E9011477
:101000002143D0E902452C4321430469214344692B
:101010002143846921431943116000214163012266
:1010200042770177084630BD08040240F8FFFDBF53
:101030000000024070B5044600F004F90546601C4B
:1010400002D004480078044400F0FCF8401BA042A1
:10105000FAD370BD440000202DE9F84FDFF8B891B5
:10106000002409F1040A0AF1040B23460F270BF1AF
:10107000040EC9E00125A5402A40AA427DD1674E51
:10108000D1F804C0ACEB0608B44532D014DCBCF196
:10109000030F3AD009DCBCF1000F2AD0BCF1010FDC
:1010A0001CD0BCF1020F31D11DE0BCF1110F17D0E3
:1010B000BCF1120F2AD119E0B8F5881F19D006DC4F
:1010C000B8F5803F15D0B8F5801F1FD111E0B8F5F5
:1010D000001F0ED0B8F5041F18D10AE0CB6815E048
:1010E000CB681B1D12E0CB6808330FE0CB680C33D4
:1010F0000CE08B682BB1012B4FF0080303D0456146
:1011000004E0042302E0056100E00023FF2A01D887
:10111000064601E000F104064FEA840501D9A5F175
:101120002005D6F8008007FA05FC28EA0C0803FA27
:1011300005F548EA0508C6F800804D68ED0062D55F
:10114000374DAE6946F00106AE61AD6924F0030685
:1011500005F001050095334D06EB050CDCF8085051
:10116000A607360F07FA06F825EA0805DFF8B88063
:10117000404503D14FF0000817E044E0DFF8AC80B1
:10118000404502D14FF001080FE0DFF8A480404550
:1011900002D14FF0020808E0DFF89880404502D104
:1011A0004FF0030801E04FF0040808FA06F848EA97
:1011B0000508CCF808804D68D9F80060ED034D466D
:1011C00001D5164300E096432E604D68DAF80060C2
:1011D000AD03554601D5164300E096432E604D6899
:1011E000DBF80060ED025D4601D5164300E0964352
:1011F0002E604D68DEF80060AD02754601D51643DD
:1012000000E096432E60641C0D682A46E5407FF49A
:1012100031AFBDE8F88F000000040140000011105C
:10122000001002400000014000080140000C014095
:1012300000100140001401400AB101617047090427
:10124000FBE7000001488068704700004400002070
:101250000248816802781144816070474400002090
:10126000074810B5016841F010010160032000F04B
:1012700075F8002000F006F800F024F8002010BDFA
:101280000020024070B50D4D04464FF47A71287865
:10129000B1FBF0F00A490968B1FBF0F000F076FB11
:1012A00048B9102C07D200222146501E00F036F813
:1012B00000206C6070BD012070BD00004400002063
:1012C000500000200C4808B5816941F0010181619E
:1012D000816901F001010091C16941F08051C16152
:1012E000C06900F0805000900448416821F0E0613E
:1012F00041F00071416008BD001002400000014053
:10130000002809DB00F01F02012191404009800004
:1013100000F1E020C0F8001170470000F0B40E4B5F
:101320001B680C46C3F30223C3F10705042D00D943
:101330000425191D072901D2002300E0DB1E012628
:1013400006FA05F1491E214099409E40761E16403E
:101350003143F0BC00F0A4BF0CED00E0064900F002
:10136000070208684FF6FF03184040EA0220034ACC
:1013700010430860704700000CED00E00000FA0523
:101380002DE9F0470F46050061D0434E306800F06C
:101390000700B84209D2306820F0070038433060B7
:1013A000306800F00700B84251D128683B4C8107F3
:1013B00012D5400703D5606840F4E060606028788B
:1013C000000703D5606840F4605060606068A968F9
:1013D00020F0F000084360602878C00728D06868D3
:1013E000012810D02168022810D0890700292EDAA0
:1013F000616821F0030101436160FFF723FF80462C
:1014000041F288390DE021688903EFE78901EDE7B2
:10141000FFF718FFA0EB0801494502D90320BDE8FA
:10142000F0876068696800F00C00B0EB810FEFD1C5
:10143000306800F00700B8420BD9306820F0070090
:1014400038433060306800F00700B84201D0012016
:10145000E5E72878400705D56068E96820F4E06092
:10146000084360602878000706D56068296920F481
:10147000605040EAC100606000F038F86168084AD6
:10148000C1F30311515CC840064908600648006872
:10149000FFF7F8FE0020C2E70020024000100240E3
:1014A000DC250008500000204800002004480549C1
:1014B00000684968044AC1F30221515CC840704782
:1014C0005000002000100240EC25000804480549A7
:1014D00000684968044AC1F3C221515CC8407047A2
:1014E0005000002000100240EC250008F0B523A2B7
:1014F00089B00FCA04AC84E80F0024A10FC98DE89D
:101500000F0026494A68264802F00C03042B2FD00E
:10151000082B2DD104A8C2F38343C45CD00329D582
:10152000C86A00F00F001DF80020C86AC00316D575
:10153000C86AC96AC0F30310C1F30321401C891CA7
:10154000A0FB0223A1FB0416154F0025A1FB070CED
:1015500006FB07C601FB0561FEF716FE03E0104817
:101560006043B0FBF2F09DF81D10A14200D140088D
:1015700009B0F0BD0B486043FAE700000000040525
:101580000607080900000000000D00000102030426
:1015900005060708090A0B0C0D0E0F10001002407B
:1015A00000127A0000093D002DE9F84F040070D0C8
:1015B0002078F14DC00749D06868C0F38100012848
:1015C00007D06868C0F38100022809D16868C003A9
:1015D00006D52868800339D5A0680028E7D035E013
:1015E000A068B0F5803F0BD010B1B0F5A02F11D09E
:1015F000286820F480302860286820F4802002E0E9
:10160000286840F480302860A06890B1FFF71AFE87
:1016100006460AE0286840F480202860F0E700BF12
:10162000FFF710FE801B642876D828688003F7D562
:101630000CE0FFF707FE064605E000BFFFF702FEDD
:10164000801B6428F0D828688003F7D42078CB4E1C
:1016500080074FF001094FF000073AD5686810F095
:101660000C0F07D06868C0F38100022809D16868B0
:10167000C00306D42868800715D56069012808D101
:1016800011E06069B8B1C6F80090FFF7DBFD804655
:1016900006E042E1FFF7D6FDA0EB08000228C3D820
:1016A00028688007F6D52868A16920F0F80040EA8C
:1016B000C10028600DE03760FFF7C4FD804605E0FB
:1016C000FFF7C0FDA0EB08000228ADD8286880070E
:1016D000F6D4207800072ED5A948E169E9B1C0F811
:1016E0000090FFF7AFFD804606E000BFFFF7AAFDC0
:1016F000A0EB0800022897D8686A8007F6D5A148B1
:101700004FF4FA510068B0FBF1F0009000BF009870
:10171000411E0091FAD20EE0B0E00760FFF792FDA3
:10172000804605E0FFF78EFDA0EB0800022889D86F
:10173000686A8007F6D42078400763D5E8694FF0DF
:101740000008C00009D4E86940F08050E861E86909
:101750004FF0010800F0805000908B480168C905E7
:1017600012D40168834641F480710160FFF76AFD7D
:10177000824605E0FFF766FDA0EB0A0064287DD8ED
:10178000DBF80000C005F5D5206901280AD008B1B2
:10179000052813D0286A20F001002862286A20F06A
:1017A000040002E0286A40F001002862206941F24A
:1017B000883B98B1FFF746FD82460BE0286A40F06F
:1017C00004002862EEE700BFFFF73CFDA0EB0A0132
:1017D000594553D8286A8007F6D50CE0FFF732FD4B
:1017E000824605E0FFF72EFDA0EB0A01594545D8DA
:1017F000286A8007F6D4B8F1000F03D0E86920F01A
:101800008050E861E06AD0B36968C90307D56968A8
:10181000C1F38101022902D1E96AC9037DD40228FA
:1018200008D0E86A20F48030E862B766FFF70AFD66
:1018300080463BE02868C00005D5E86A616B00F08F
:10184000F000884269D1B766FFF7FCFC804605E0EE
:10185000FFF7F8FCA0EB0800642874D828680001A2
:10186000F6D4E86A616B20F0F0000843E862E86AA9
:10187000216B20F470600843E86201E063E018E047
:10188000C6F86890FFF7DEFC804605E0FFF7DAFC5B
:10189000A0EB0800642856D828680001F6D508E0B7
:1018A000FFF7D0FCA0EB080064284CD828680001A2
:1018B000F6D4206A90B36968C1F38101022949D046
:1018C0000228376603D0FFF7BDFC04463EE0FFF771
:1018D000B9FC074605E000BFFFF7B4FCC01B0228B7
:1018E00031D828688001F7D4606AB0F5803F09D10B
:1018F000E86A61680843E862E86AE16820F00F007E
:101900000843E862D4E909010843696821F47411C5
:1019100008436860C6F8609001E028E029E0FFF71E
:1019200091FC044605E000BFFFF78CFC001B022879
:1019300009D828688001F7D51BE000BFFFF782FCBB
:10194000001B022802D90320BDE8F88F2868800117
:10195000F4D40EE00128F7D06868626A00F48031A0
:10196000914204D1A16A00F47010884201D0012094
:10197000EAE70020E8E700000010024000004242D1
:1019800080044242500000200070004010B5401E0C
:10199000B0F1807F01D3012010BD4FF0E0246061E1
:1019A0000F21601700F07CFC0020A061072020615F
:1019B000002010BD7047704770B590F83C20012A98
:1019C00019D0012400F83C4F0222427050F83C3CF0
:1019D0005A689D6822F070060A684968324325F00B
:1019E000800529435A6050F83C2C916044700021D6
:1019F0000170084670BD022070BD10B5040003D010
:101A000094F83D0010B107E0012010BD002084F8DB
:101A10003C00204600F00CF8022084F83D00211D17
:101A2000206800F03BFB012084F83D00002010BD41
:101A300008B500680B49884212D10B48C16941F0D2
:101A40000401C161C069002200F00400009002217D
:101A50001E20FFF763FCBDE808401E20FFF750BCC6
:101A600008BD000000080040001002400168CA687C
:101A700042F00102CA600068816801F0070106298E
:101A800003D0016841F0010101600020704770B58A
:101A9000044690F83C00012817D0012584F83C50FA
:101AA000022084F83D002068826822F0770222F448
:101AB0007F4282600868502830D00DDC20284DD04D
:101AC00005DC98B310283BD148E0022070BD3028D7
:101AD00044D0402834D139E0602828D0702806D07E
:101AE000B0F5805F2CD0B0F5005F29D10AE0CB685B
:101AF000D1E90121206800F00FFB2068816841F0E6
:101B0000770109E0CB68D1E90121206800F004FBEE
:101B10002068816841F48041816011E0CA684968A9
:101B2000206800F00BFB5021206807E016E0CA682F
:101B30004968206800F013FB6021206800F0F6FA85
:101B400084F83D50002084F83C0070BDCA684968A4
:101B5000206800F0F3FA40212068EFE72268014690
:101B60001046EBE7704770B50446006801694FF016
:101B70000005C943890715D4C168C943890711D431
:101B8000E91E0161012020772068806980072046D6
:101B900002D0FFF7E7FF04E000F098F8204600F0DD
:101BA00096F8257720680169C943490717D4C168A9
:101BB000C943490713D46FF0040101610220207763
:101BC0002068806910F4407F204602D0FFF7CAFFEA
:101BD00004E000F07BF8204600F079F825772068D3
:101BE0000169C943090716D4C168C943090712D45A
:101BF0006FF008010161042020772068C069800728
:101C0000204602D0FFF7AEFF04E000F05FF8204668
:101C100000F05DF8257720680169C943C90617D42B
:101C2000C168C943C90613D46FF0100101610820CF
:101C300020772068C06910F4407F204602D0FFF76B
:101C400091FF04E000F042F8204600F040F82577CC
:101C500020680169C943C90708D1C168C943C907D8
:101C600004D1891E0161204600F032F82068016924
:101C7000C943090609D4C168C943090605D46FF0F0
:101C8000800101612046FFF795FE20680169C94384
:101C9000490609D4C168C943490605D46FF040011B
:101CA0000161204600F015F820680169C9438906E2
:101CB0000BD4C168C943890607D46FF020010161C4
:101CC0002046BDE87040FFF776BE70BD7047704794
:101CD0007047704770B5040004D094F839000025AF
:101CE00010B106E0012070BD84F83850204600F0A5
:101CF00023F8242084F839002068C16821F40051B9
:101D0000C160204600F03EFA2068016921F490414C
:101D100001612068416921F02A0141612068C168A0
:101D200041F40051C160E563202084F8390084F853
:101D30003A00002070BD000070B586B00025064650
:101D4000009501950295039500681E49884237D198
:101D50001D49C86940F40020C861C86900F400202A
:101D60000490886940F0100088618869174C00F081
:101D700010000490081500900220019003200390A9
:101D800069462046FFF768F9E014CDE90005694689
:101D900020460295FFF760F90E4C0D48C4E9000596
:101DA0008020C4E9025020202561C4E90550204666
:101DB000E561FFF701F908B1FEF764FC7463666240
:101DC00006B070BD004C0040001002400010014001
:101DD00030040240CC0200202DE9F843044690F87C
:101DE00039001F4616460D46202850D1A5B19EB198
:101DF00094F8380001284AD0012084F838004FF0C8
:101E00000008C4F83C80212084F83900FFF71AFA52
:101E1000A6848146E68426E00120BDE8F883E08CB4
:101E2000401EE084A0684B46B0F5805F4FF0000292
:101E30004FF080012046009703D000F0FFF9E8B989
:101E40000DE000F0FBF9C8B928882168C0F308004C
:101E50004860206908B16D1C05E0AD1C03E02168F5
:101E600015F8010B4860E08C0028D8D14B460022C1
:101E700040212046009700F0E1F908B10320CCE7AB
:101E8000202084F8390084F838800020C5E702203B
:101E9000C3E700000A4809494FF4A0220160092164
:101EA000416000218160C0E9031241610176417601
:101EB0008176C17601774177FEF755BE0064004018
:101EC000540000202DE9F04385B0002425480094FB
:101ED000019402940394816941F020018161816938
:101EE00001F020010491816941F00801816181695B
:101EF00001F008010491816941F01001816181695B
:101F000001F010010491816941F00401816180694F
:101F1000DFF8548000F004004FF490450490002254
:101F200029464046FFF788F9DFF840904FF4825782
:101F3000002239464846FFF77FF900950226012521
:101F40000396CDE9015469464046FFF785F80097AE
:101F50000396CDE9015469464846FFF77DF805B080
:101F6000BDE8F08300100240000C01400010014069
:101F700010B586B000241248009401940294039492
:101F800004940E490594016048F6A041C0E901148B
:101F9000C721C0E903148461FFF72FFD4FF480507F
:101FA000009069460648FFF772FD049404A90448AE
:101FB0000594FFF701FD06B010BD000000080040C9
:101FC0007C000020FFF744B970B594B03821684612
:101FD000FEF722F914210EA8FEF71EF901250024B0
:101FE0002804CDE902040226CDE908600095059594
:101FF00001944FF4E010CDE90A046846FFF7D4FAE3
:102000000F20CDE90E06A802CDE9104002210EA84E
:102010001294FFF7B5F90248056714B070BD0000CF
:10202000000042421048016841F00101016041682E
:102030000E4A1140416001680D4A1140016001687B
:1020400021F480210160416821F4FE0141600168B2
:1020500021F0A05101604FF47F0181600021C16235
:102060000449C00308607047001002400000FFF000
:10207000FFFFF6FE08ED00E010B564230D220449D1
:102080000448FFF7A9FEBDE810400348FFF76BBD09
:102090000C000020BC0000207C000020F0B502688D
:1020A000194B1A4C1A4D1B4E4FF08047984207D0DF
:1020B000B84205D0A04203D0A84201D0B04204D11A
:1020C00022F0700C4A6842EA0C02984207D0B842EB
:1020D00005D0A04203D0A84201D0B04203D122F4DF
:1020E0004074CA6822434C6922F080022243026095
:1020F0008A68C2620A688262984201D109690163F2
:1021000001214161F0BD0000002C014000040040AD
:1021100000080040000C004010B5846842EA032229
:1021200024F47F440A432243826010BD826822F077
:1021300070020A4342F007018160704710B5036ADC
:10214000046A24F001040462846924F0F00444EA7F
:10215000021423F00A020A438461026210BD10B522
:10216000036A23F0100303628369046A23F4704353
:1021700043EA023224F0A00343EA011182610162C2
:1021800010BD00002DE9F041044600680169E268D5
:1021900021F44051114301612169A068084361693C
:1021A00008432168CA6841F20C639A430243CA603B
:1021B00020684169A26921F44071114341611E49BF
:1021C000206864253226884202D1FFF77FF901E0BA
:1021D000FFF76CF900EBC00101EB001160686FF0D4
:1021E00018078000B1FBF0F2B2FBF5F2B1FBF0F39F
:1021F0007A4303EB8202B1FBF0F306EB0212B2FB6F
:10220000F5F2B3FBF5F302F0F00202EB0312B1FBBF
:10221000F0F3B1FBF0F0B0FBF5F0784303EB800096
:1022200006EB0010B0FBF5F0216800F00F00104441
:102230008860BDE8F0810000003801402DE9F041E0
:10224000984617460E460446069D1DE0681C1BD0A6
:102250002DB1FEF7F7FFA0EB0800A84214D92068C3
:10226000C16821F4D071C1602068416921F0010189
:102270004161202084F8390084F83A00002084F875
:1022800038000320BDE8F0812068006836EA0000CD
:1022900004D00020B842D9D00020F3E70120F9E7AC
:1022A0000907090E002804DB00F1E02080F8001483
:1022B000704700F00F0000F1E02080F8141D704717
:1022C00002E008C8121F08C1002AFAD170477047FF
:1022D000002001E001C1121F002AFBD1704708292C
:1022E00007D2DFE801F004070A0D1013161900F0F9
:1022F0000100704700F00200704700F004007047D2
:1023000000F00800704700F01000704700F0200057
:10231000704700F04000704700F0800070470000F8
:102320002DE9F04177496920002408600846082714
:10233000C4608460076104751830012544614FF45E
:10234000AC41C0E906454FF6E07680E85200C46033
:10235000056201460461C038FEF70CFA694849F687
:1023600020614030C0E90554C56180E85200C46076
:10237000056201460461E838FEF7FCF96148022174
:10238000683000F1140282E832004FF4084180E81E
:102390005200C460056201460461A0F58870FEF732
:1023A000E9F958480321903000F1140282E8320024
:1023B0004FF4224180E85200C46005620146046186
:1023C000A0F59C70FEF7D6F94E480421B83000F114
:1023D000140282E8320048F2C06180E85200C46012
:1023E000056201460461A0F5B070FEF7C3F94548E7
:1023F0000521E03000F1140282E832004AF2C011F7
:1024000080E85200C460056201460461A0F5C47012
:10241000FEF7B0F93C48062100F1140282E83200D0
:1024200046F2C02180E85200C460056201460461A2
:10243000A0F5D870FEF79EF933480721283000F147
:10244000140282E8320048F2E07180E85200C46071
:10245000056201460461A0F5EC70FEF78BF92A488D
:102460004FF440715030C0E9064580E852000562E3
:10247000C460C0E904470146A0F50070FEF77AF990
:1024800021480921783000F1140282E8320042F23A
:10249000202180E85200C460056201460461A0F575
:1024A0000A70FEF767F918480A21A03000F11402FB
:1024B00082E832004FF4095180E85200C46005629E
:1024C00001460461A0F51470FEF754F90D48A838D0
:1024D000FEF71AFC0B480221A838FEF7D4F80B4C83
:1024E000012291032046FEF7A7FE0122D1022046D9
:1024F000FEF7A2FEBDE8F041012211030448FEF7F9
:102500009BBE0000FC00002004020020000C0140E3
:102510000010014008B5FEF7A3FEFFF755FDFFF7D9
:10252000D1FC2A48416941F0020141614069002221
:1025300000F00200009011463A20FEF7EFFE3A202C
:10254000FEF7DEFEFFF7A6FCFFF712FD214820494B
:102550000C2201604FF4E131416000218160C160D3
:10256000C0E904128161C161FFF7B4FB194840382A
:10257000FFF77CFAFFF7D4FE17484FF47A7401781E
:102580004278C378114082781A4011400279114094
:102590004279114082791140C2791140027A11408A
:1025A000427A1140827A1140C27A1140C9430173C4
:1025B000094B08490C3B40311A1DA1F1A800FEF758
:1025C00074F82046FEF736FDF2E7000000100240E6
:1025D000004C0040BC0000200C0000200000000067
:1025E00000000000010203040607080900000000C3
:1025F000010203041426000800000020540000001B
:10260000C02200086826000854000020DC060000F4
:10261000D0220008000000000000000000000000C0
:102620002E03080001020304050607080500000048
:102630000000000000002D2F2D2F2F2F0000000084
:10264000000000000000000000000000000000008A
:102650000000000000000000010000001000000069
:08266000000000000024F4005A
:04000005080001519D
:00000001FF
