:1000000002019AC2A0C2A17F147E001200FA7F03EF
:10001000120140D2A1C2A17F057E001200FA7F0327
:10002000120140D2A1C2A17F641201A67F03120176
:1000300040D2A1C2A17F017E001200FA7F0212010C
:1000400040D2A1C2A11F7E001200FA7F281200BA7E
:100050007F0C1200BA7F011200BA7F060200BA12AA
:1000600000037B417D027F011201517F4212018A10
:100070007BFF7A01797A7D017F0212011A7F0112DA
:1000800000BA7BFF7A0179861200DA80FEBB010C90
:10009000E58229F582E5833AF583E0225006E925D9
:1000A00082F8E622BBFE06E92582F8E222E58229F3
:1000B000F582E5833AF583E49322AE07C2A01201EC
:1000C00039D2A1C2A1EF24FE60030470077F027E33
:1000D000000200FA7F251201A6228B0B8A0C890DE3
:1000E000E4FDAB0BAA0CA90D8D8275830012008D67
:1000F000FF600612018A0D80E922E4FDFCC3ED9F3A
:10010000EC9E5015E4FBFA0BBB00010AEB647B4A42
:1001100070F50DBD00010C80E4228B088A09890A64
:10012000BF01047F8080027FC0ED142FFF1200BA50
:10013000AB08AA09A90A0200DA120168D2A1C2A179
:10014000EFA2E392A7A2E292A6A2E192A51392A443
:10015000228B08BF01047F8080027FC0ED142FFF37
:100160001200BAAF0802018AEF3392A7EFA2E6921B
:10017000A6A2E592A5A2E492A42248656C6C6F2029
:10018000576F726C640031323300AE07D2A0120197
:1001900039D2A1C2A17F290201A6787FE4F6D8FD59
:0D01A00075810D02005FAE071FEE70FA22A0
:00000001FF
