:10000000020084AD07E4FCC2A3120075E4FFED54C6
:1000100080C413131354016004D2A18002C2A1D280
:10002000A0EC25E0FC30A203430401C2A0ED25E0D2
:10003000FD0FBF08D9D2A3AF0422E4FDFCC3ED9F9E
:10004000EC9E5015E4FBFA0BBB00010AEB647B4A03
:1000500070F50DBD00010C80E422750903120090BB
:10006000AF091200038F0885089005097F0A7E00FA
:1000700012003A80EBE4FFFE0FBF00010EEF640CAC
:100080004E70F522787FE4F6D8FD75810902005A9A
:07009000D2A3C2A0D2A122FD
:00000001FF
